{
  "contractName": "Shipping",
  "abi": [
    {
      "inputs": [],
      "stateMutability": "nonpayable",
      "type": "constructor"
    },
    {
      "anonymous": false,
      "inputs": [
        {
          "indexed": false,
          "internalType": "string",
          "name": "description",
          "type": "string"
        }
      ],
      "name": "LogNewAlert",
      "type": "event"
    },
    {
      "inputs": [],
      "name": "Shipped",
      "outputs": [],
      "stateMutability": "nonpayable",
      "type": "function"
    },
    {
      "inputs": [],
      "name": "Delivered",
      "outputs": [],
      "stateMutability": "nonpayable",
      "type": "function"
    },
    {
      "inputs": [],
      "name": "Status",
      "outputs": [
        {
          "internalType": "string",
          "name": "",
          "type": "string"
        }
      ],
      "stateMutability": "view",
      "type": "function",
      "constant": true
    }
  ],
  "bytecode": "0x608060405234801561001057600080fd5b5060008060006101000a81548160ff0219169083600281111561003657610035610040565b5b021790555061006f565b7f4e487b7100000000000000000000000000000000000000000000000000000000600052602160045260246000fd5b61049b8061007e6000396000f3fe608060405234801561001057600080fd5b50600436106100415760003560e01c806345f09ce914610046578063779822f7146100645780637e59301e1461006e575b600080fd5b61004e610078565b60405161005b919061033c565b60405180910390f35b61006c61009c565b005b6100766100fd565b005b606060008060009054906101000a900460ff1690506100968161015e565b91505090565b60026000806101000a81548160ff021916908360028111156100c1576100c061035e565b5b02179055507fca75c80642b93c980135b8355995abae3ab06033dc81f956b3824323b4903ef56040516100f3906103d9565b60405180910390a1565b60016000806101000a81548160ff021916908360028111156101225761012161035e565b5b02179055507fca75c80642b93c980135b8355995abae3ab06033dc81f956b3824323b4903ef560405161015490610445565b60405180910390a1565b60608160028111156101735761017261035e565b5b600060028111156101875761018661035e565b5b14156101ca576040518060400160405280600781526020017f50656e64696e6700000000000000000000000000000000000000000000000000815250905061029e565b8160028111156101dd576101dc61035e565b5b600160028111156101f1576101f061035e565b5b1415610234576040518060400160405280600781526020017f5368697070656400000000000000000000000000000000000000000000000000815250905061029e565b8160028111156102475761024661035e565b5b60028081111561025a5761025961035e565b5b141561029d576040518060400160405280600981526020017f44656c6976657265640000000000000000000000000000000000000000000000815250905061029e565b5b919050565b600081519050919050565b600082825260208201905092915050565b60005b838110156102dd5780820151818401526020810190506102c2565b838111156102ec576000848401525b50505050565b6000601f19601f8301169050919050565b600061030e826102a3565b61031881856102ae565b93506103288185602086016102bf565b610331816102f2565b840191505092915050565b600060208201905081810360008301526103568184610303565b905092915050565b7f4e487b7100000000000000000000000000000000000000000000000000000000600052602160045260246000fd5b7f596f7572207061636b6167652068617320617272697665640000000000000000600082015250565b60006103c36018836102ae565b91506103ce8261038d565b602082019050919050565b600060208201905081810360008301526103f2816103b6565b9050919050565b7f596f7572207061636b61676520686173206265656e2073686970706564000000600082015250565b600061042f601d836102ae565b915061043a826103f9565b602082019050919050565b6000602082019050818103600083015261045e81610422565b905091905056fea26469706673582212201a28b60911320d6cc7b3b25d83b9ac4f08fccf1402413668aecdf13e4d2cc64864736f6c634300080b0033",
  "immutableReferences": {},
  "source": "// SPDX-License-Identifier: MIT\npragma solidity >=0.4.22 <0.9.0;\n\ncontract Shipping{\n\n    enum ShippingStatus { Pending, Shipped, Delivered }\n\n    ShippingStatus private status;\n\n    event LogNewAlert (string description);\n\n    constructor() public {\n        status = ShippingStatus.Pending;\n    }\n\n    function Shipped() public {\n        status = ShippingStatus.Shipped;\n        emit LogNewAlert(\"Your package has been shipped\");\n    }\n\n    function Delivered() public {\n        status = ShippingStatus.Delivered;\n        emit LogNewAlert(\"Your package has arrived\");\n    }\n\n    function getStatus(ShippingStatus _status) internal pure returns (string memory){\n        if (ShippingStatus.Pending == _status) return \"Pending\";\n        if (ShippingStatus.Shipped == _status) return \"Shipped\";\n        if (ShippingStatus.Delivered == _status) return \"Delivered\";\n    }\n\n    function Status() public view returns (string memory){\n        ShippingStatus _status = status;\n        return getStatus(_status);\n    } \n}",
  "sourcePath": "/home/yk/Projects/shipping/contracts/Shipping.sol",
  "compiler": {
    "name": "solc",
    "version": "0.8.11+commit.d7f03943.Emscripten.clang"
  },
  "schemaVersion": "3.4.5",
  "updatedAt": "2022-03-04T00:23:41.475Z",
  "networkType": "ethereum",
  "devdoc": {
    "kind": "dev",
    "methods": {},
    "version": 1
  },
  "userdoc": {
    "kind": "user",
    "methods": {},
    "version": 1
  }
}